{"abi":[{"type":"function","name":"billCounter","inputs":[],"outputs":[{"name":"","type":"uint256","internalType":"uint256"}],"stateMutability":"view"},{"type":"function","name":"bills","inputs":[{"name":"","type":"uint256","internalType":"uint256"}],"outputs":[{"name":"creator","type":"address","internalType":"address"},{"name":"payee","type":"address","internalType":"address payable"},{"name":"totalAmount","type":"uint256","internalType":"uint256"},{"name":"shareAmount","type":"uint256","internalType":"uint256"},{"name":"totalContributed","type":"uint256","internalType":"uint256"},{"name":"participantCount","type":"uint256","internalType":"uint256"},{"name":"contributors","type":"uint256","internalType":"uint256"},{"name":"settled","type":"bool","internalType":"bool"},{"name":"cancelled","type":"bool","internalType":"bool"},{"name":"expiresAt","type":"uint256","internalType":"uint256"}],"stateMutability":"view"},{"type":"function","name":"cancelBill","inputs":[{"name":"_billId","type":"uint256","internalType":"uint256"}],"outputs":[],"stateMutability":"nonpayable"},{"type":"function","name":"claimRefund","inputs":[{"name":"_billId","type":"uint256","internalType":"uint256"}],"outputs":[],"stateMutability":"nonpayable"},{"type":"function","name":"contribute","inputs":[{"name":"_billId","type":"uint256","internalType":"uint256"}],"outputs":[],"stateMutability":"payable"},{"type":"function","name":"contributionAmounts","inputs":[{"name":"","type":"uint256","internalType":"uint256"},{"name":"","type":"address","internalType":"address"}],"outputs":[{"name":"","type":"uint256","internalType":"uint256"}],"stateMutability":"view"},{"type":"function","name":"createBill","inputs":[{"name":"_payee","type":"address","internalType":"address payable"},{"name":"_totalAmount","type":"uint256","internalType":"uint256"},{"name":"_participantCount","type":"uint256","internalType":"uint256"}],"outputs":[{"name":"","type":"uint256","internalType":"uint256"}],"stateMutability":"nonpayable"},{"type":"function","name":"createBillWithExpiry","inputs":[{"name":"_payee","type":"address","internalType":"address payable"},{"name":"_totalAmount","type":"uint256","internalType":"uint256"},{"name":"_participantCount","type":"uint256","internalType":"uint256"},{"name":"_expiresAt","type":"uint256","internalType":"uint256"}],"outputs":[{"name":"","type":"uint256","internalType":"uint256"}],"stateMutability":"nonpayable"},{"type":"function","name":"getBillStatus","inputs":[{"name":"_billId","type":"uint256","internalType":"uint256"}],"outputs":[{"name":"creator","type":"address","internalType":"address"},{"name":"payee","type":"address","internalType":"address"},{"name":"totalAmount","type":"uint256","internalType":"uint256"},{"name":"shareAmount","type":"uint256","internalType":"uint256"},{"name":"totalContributed","type":"uint256","internalType":"uint256"},{"name":"contributors","type":"uint256","internalType":"uint256"},{"name":"participantCount","type":"uint256","internalType":"uint256"},{"name":"settled","type":"bool","internalType":"bool"}],"stateMutability":"view"},{"type":"function","name":"getBillTiming","inputs":[{"name":"_billId","type":"uint256","internalType":"uint256"}],"outputs":[{"name":"expiresAt","type":"uint256","internalType":"uint256"},{"name":"cancelled","type":"bool","internalType":"bool"},{"name":"expired","type":"bool","internalType":"bool"}],"stateMutability":"view"},{"type":"function","name":"hasContributed","inputs":[{"name":"","type":"uint256","internalType":"uint256"},{"name":"","type":"address","internalType":"address"}],"outputs":[{"name":"","type":"bool","internalType":"bool"}],"stateMutability":"view"},{"type":"event","name":"BillCancelled","inputs":[{"name":"billId","type":"uint256","indexed":true,"internalType":"uint256"}],"anonymous":false},{"type":"event","name":"BillCreated","inputs":[{"name":"billId","type":"uint256","indexed":true,"internalType":"uint256"},{"name":"creator","type":"address","indexed":true,"internalType":"address"},{"name":"payee","type":"address","indexed":true,"internalType":"address"},{"name":"totalAmount","type":"uint256","indexed":false,"internalType":"uint256"},{"name":"shareAmount","type":"uint256","indexed":false,"internalType":"uint256"},{"name":"participantCount","type":"uint256","indexed":false,"internalType":"uint256"}],"anonymous":false},{"type":"event","name":"BillSettled","inputs":[{"name":"billId","type":"uint256","indexed":true,"internalType":"uint256"},{"name":"settledAmount","type":"uint256","indexed":false,"internalType":"uint256"}],"anonymous":false},{"type":"event","name":"ContributionMade","inputs":[{"name":"billId","type":"uint256","indexed":true,"internalType":"uint256"},{"name":"contributor","type":"address","indexed":true,"internalType":"address"},{"name":"amount","type":"uint256","indexed":false,"internalType":"uint256"}],"anonymous":false},{"type":"event","name":"RefundClaimed","inputs":[{"name":"billId","type":"uint256","indexed":true,"internalType":"uint256"},{"name":"contributor","type":"address","indexed":true,"internalType":"address"},{"name":"amount","type":"uint256","indexed":false,"internalType":"uint256"}],"anonymous":false}],"bytecode":{"object":"0x608060405234801561000f575f80fd5b506112998061001d5f395ff3fe60806040526004361061009a575f3560e01c80639d7a0339116100625780639d7a033914610265578063b5b96ae014610279578063c1cbbca7146102c2578063ceb323e8146102d5578063de5fc64a146102f4578063ee18837814610313575f80fd5b8063286fda3b1461009e57806328bdcde81461010a5780634a791051146101e15780635b7baf64146102255780636776298814610246575b5f80fd5b3480156100a9575f80fd5b506100bd6100b83660046110d3565b61034f565b604080516001600160a01b03998a168152989097166020890152958701949094526060860192909252608085015260a084015260c0830152151560e0820152610100015b60405180910390f35b348015610115575f80fd5b506101886101243660046110d3565b600160208190525f91825260409091208054918101546002820154600383015460048401546005850154600686015460078701546008909701546001600160a01b0398891698909616969495939492939192909160ff80831692610100900416908a565b604080516001600160a01b039b8c1681529a90991660208b0152978901969096526060880194909452608087019290925260a086015260c0850152151560e0840152151561010083015261012082015261014001610101565b3480156101ec575f80fd5b506102176101fb366004611101565b600360209081525f928352604080842090915290825290205481565b604051908152602001610101565b348015610230575f80fd5b5061024461023f3660046110d3565b610457565b005b348015610251575f80fd5b506102446102603660046110d3565b610707565b348015610270575f80fd5b506102175f5481565b348015610284575f80fd5b506102b2610293366004611101565b600260209081525f928352604080842090915290825290205460ff1681565b6040519015158152602001610101565b6102446102d03660046110d3565b61084b565b3480156102e0575f80fd5b506102176102ef36600461112f565b610c52565b3480156102ff575f80fd5b5061021761030e366004611161565b610c67565b34801561031e575f80fd5b5061033261032d3660046110d3565b610cbd565b604080519384529115156020840152151590820152606001610101565b5f81815260016020818152604080842081516101408101835281546001600160a01b039081168083529583015416938101939093526002810154918301919091526003810154606083015260048101546080830152600581015460a0830152600681015460c0830152600781015460ff808216151560e085015261010091829004161515908301526008015461012082015282918291829182918291829182916104145760405162461bcd60e51b815260040161040b90611199565b60405180910390fd5b805f015181602001518260400151836060015184608001518560c001518660a001518760e001519850985098509850985098509850985050919395975091939597565b5f81815260016020526040902080546001600160a01b031661048b5760405162461bcd60e51b815260040161040b90611199565b600781015460ff16156104b05760405162461bcd60e51b815260040161040b906111c1565b6007810154610100900460ff168061054f5750604080516101408101825282546001600160a01b03908116825260018401541660208201526002830154918101919091526003820154606082015260048201546080820152600582015460a0820152600682015460c0820152600782015460ff808216151560e08401526101009182900416151590820152600882015461012082015261054f90610d93565b6105905760405162461bcd60e51b8152602060048201526012602482015271526566756e6420756e617661696c61626c6560701b604482015260640161040b565b5f828152600360209081526040808320338452909152902054806105f65760405162461bcd60e51b815260206004820152601960248201527f4e6f20636f6e747269627574696f6e20746f20726566756e6400000000000000604482015260640161040b565b5f8381526003602090815260408083203384529091528120819055600483018054839290610625908490611203565b925050819055506001826006015f8282546106409190611203565b90915550506040515f90339083908381818185875af1925050503d805f8114610684576040519150601f19603f3d011682016040523d82523d5f602084013e610689565b606091505b50509050806106ca5760405162461bcd60e51b815260206004820152600d60248201526c1499599d5b990819985a5b1959609a1b604482015260640161040b565b604051828152339085907ff3f402280ef0a7905e124aa621b65eaeb2725c343e8b36d398ed78c29daf285c9060200160405180910390a350505050565b5f81815260016020526040902080546001600160a01b031661073b5760405162461bcd60e51b815260040161040b90611199565b80546001600160a01b031633146107945760405162461bcd60e51b815260206004820152601760248201527f4f6e6c792063726561746f722063616e2063616e63656c000000000000000000604482015260640161040b565b600781015460ff16156107b95760405162461bcd60e51b815260040161040b906111c1565b6007810154610100900460ff161561080c5760405162461bcd60e51b8152602060048201526016602482015275109a5b1b08185b1c9958591e4818d85b98d95b1b195960521b604482015260640161040b565b60078101805461ff00191661010017905560405182907f43325fb02c313384f8af098d769232386569a0c36f650c224056ad6a51d64237905f90a25050565b5f81815260016020526040902080546001600160a01b031661087f5760405162461bcd60e51b815260040161040b90611199565b600781015460ff16156108a45760405162461bcd60e51b815260040161040b906111c1565b6007810154610100900460ff16156108ef5760405162461bcd60e51b815260206004820152600e60248201526d109a5b1b0818d85b98d95b1b195960921b604482015260640161040b565b604080516101408101825282546001600160a01b03908116825260018401541660208201526002830154918101919091526003820154606082015260048201546080820152600582015460a0820152600682015460c0820152600782015460ff808216151560e08401526101009182900416151590820152600882015461012082015261097b90610d93565b156109b75760405162461bcd60e51b815260206004820152600c60248201526b109a5b1b08195e1c1a5c995960a21b604482015260640161040b565b5f82815260026020908152604080832033845290915290205460ff1615610a165760405162461bcd60e51b8152602060048201526013602482015272105b1c9958591e4818dbdb9d1c9a589d5d1959606a1b604482015260640161040b565b8060050154816006015410610a585760405162461bcd60e51b8152602060048201526008602482015267105b1b081c185a5960c21b604482015260640161040b565b80600301543414610aa45760405162461bcd60e51b8152602060048201526016602482015275125b98dbdc9c9958dd081cda185c9948185b5bdd5b9d60521b604482015260640161040b565b34816004015f828254610ab79190611216565b925050819055506001816006015f828254610ad29190611216565b90915550505f82815260026020908152604080832033808552908352818420805460ff19166001179055858452600383528184208185528352928190203490819055905190815284917f0a4a91237423e0a1766a761c7cb029311d8b95d6b1b81db1b949a70c98b4e08e910160405180910390a380600201548160040154148015610b64575080600501548160060154145b15610c4e5760078101805460ff191660019081179091556004820154908201546040515f916001600160a01b03169083908381818185875af1925050503d805f8114610bcb576040519150601f19603f3d011682016040523d82523d5f602084013e610bd0565b606091505b5050905080610c115760405162461bcd60e51b815260206004820152600d60248201526c14185e5bdd5d0819985a5b1959609a1b604482015260640161040b565b837f73b571ccc6bea0432a409e7b19c4b78eeda11dd5da204454d7fc25d85b017ef283604051610c4391815260200190565b60405180910390a250505b5050565b5f610c5f8484845f610db4565b949350505050565b5f428211610ca85760405162461bcd60e51b815260206004820152600e60248201526d496e76616c69642065787069727960901b604482015260640161040b565b610cb485858585610db4565b95945050505050565b5f81815260016020818152604080842081516101408101835281546001600160a01b039081168083529583015416938101939093526002810154918301919091526003810154606083015260048101546080830152600581015460a0830152600681015460c0830152600781015460ff808216151560e08501526101009182900416151590830152600801546101208201528291829190610d705760405162461bcd60e51b815260040161040b90611199565b806101200151816101000151610d8583610d93565b935093509350509193909250565b5f8161012001515f14158015610dae57508161012001514210155b92915050565b5f6001600160a01b038516610dfb5760405162461bcd60e51b815260206004820152600d60248201526c496e76616c696420706179656560981b604482015260640161040b565b5f8311610e4a5760405162461bcd60e51b815260206004820152601960248201527f496e76616c6964207061727469636970616e7420636f756e7400000000000000604482015260640161040b565b5f8411610ea55760405162461bcd60e51b815260206004820152602360248201527f546f74616c20616d6f756e74206d75737420626520677265617465722074686160448201526206e20360ec1b606482015260840161040b565b610eaf838561123d565b15610efc5760405162461bcd60e51b815260206004820152601960248201527f546f74616c206d7573742064697669646520657175616c6c7900000000000000604482015260640161040b565b5f610f078486611250565b905060015f80828254610f1a9190611216565b92505081905550604051806101400160405280336001600160a01b03168152602001876001600160a01b031681526020018681526020018281526020015f81526020018581526020015f81526020015f151581526020015f151581526020018481525060015f805481526020019081526020015f205f820151815f015f6101000a8154816001600160a01b0302191690836001600160a01b031602179055506020820151816001015f6101000a8154816001600160a01b0302191690836001600160a01b0316021790555060408201518160020155606082015181600301556080820151816004015560a0820151816005015560c0820151816006015560e0820151816007015f6101000a81548160ff0219169083151502179055506101008201518160070160016101000a81548160ff0219169083151502179055506101208201518160080155905050856001600160a01b0316336001600160a01b03165f547fdc35d1228e3a84c1d8842c8e4fd4b66bbaa943076f033d1b31171d2ee56673ae8885896040516110bf939291909283526020830191909152604082015260600190565b60405180910390a450505f54949350505050565b5f602082840312156110e3575f80fd5b5035919050565b6001600160a01b03811681146110fe575f80fd5b50565b5f8060408385031215611112575f80fd5b823591506020830135611124816110ea565b809150509250929050565b5f805f60608486031215611141575f80fd5b833561114c816110ea565b95602085013595506040909401359392505050565b5f805f8060808587031215611174575f80fd5b843561117f816110ea565b966020860135965060408601359560600135945092505050565b6020808252600e908201526d109a5b1b081b9bdd08199bdd5b9960921b604082015260600190565b602080825260149082015273109a5b1b08185b1c9958591e481cd95d1d1b195960621b604082015260600190565b634e487b7160e01b5f52601160045260245ffd5b81810381811115610dae57610dae6111ef565b80820180821115610dae57610dae6111ef565b634e487b7160e01b5f52601260045260245ffd5b5f8261124b5761124b611229565b500690565b5f8261125e5761125e611229565b50049056fea2646970667358221220ce60118e69eac4b04ab418c45cb015f49424cf4f32fbc55ff8d96a2ec384d5dc64736f6c63430008140033","linkReferences":{}},"methodIdentifiers":{"billCounter()":"9d7a0339","bills(uint256)":"28bdcde8","cancelBill(uint256)":"67762988","claimRefund(uint256)":"5b7baf64","contribute(uint256)":"c1cbbca7","contributionAmounts(uint256,address)":"4a791051","createBill(address,uint256,uint256)":"ceb323e8","createBillWithExpiry(address,uint256,uint256,uint256)":"de5fc64a","getBillStatus(uint256)":"286fda3b","getBillTiming(uint256)":"ee188378","hasContributed(uint256,address)":"b5b96ae0"},"id":0}